:020000040800F2
:10000000F8550020E9010008DD1E0008CD1C00089D
:10001000D91E0008D1030008A72200080000000034
:100020000000000000000000000000004501000882
:10003000D50300080000000089010008191F00080E
:10004000030200080302000803020008030200087C
:10005000030200080302000803020008030200086C
:10006000030200080302000803020008030200085C
:10007000030200080302000803020008030200084C
:10008000030200080302000803020008030200083C
:10009000030200080302000803020008030200082C
:1000A000030200080302000803020008030200081C
:1000B000030200080302000803020008030200080C
:1000C00003020008030200080302000803020008FC
:1000D00003020008030200080302000803020008EC
:1000E00003020008030200080302000803020008DC
:1000F00003020008030200080302000803020008CC
:1001000003020008030200080302000803020008BB
:100110000302000803020008E51F000803020008AC
:10012000030200080302000803020008030200089B
:10013000DFF80CD000F0A2F800480047F5240008D2
:10014000F8550020204B19680868B0E8F00F80F3DC
:100150000988BFF36F8F4FF0000080F311884EF0D5
:100160000D0E70470000000006480068006880F32C
:10017000088862B661B6BFF34F8FBFF36F8F00DFA1
:1001800000BF00BF08ED00E0EFF30980BFF36F8F01
:100190000D4B1A6820E9F00F106008B54FF0100001
:1001A00080F3118802F0FEFE4FF0000080F311880A
:1001B000BDE8084019680868B0E8F00F80F30988C6
:1001C000BFF36F8F704700BF04000020EFF3118072
:1001D0004FF0100181F31188704780F31188704748
:1001E000EFF3058070470000064880470648004747
:1001F000FEE7FEE7FEE7FEE7FEE7FEE7FEE7FEE7D7
:10020000FEE7FEE78D1F000831010008D2B201E0D1
:1002100000F8012B491EFBD270470022F6E710B50B
:1002200013460A4604461946FFF7F0FF204610BD64
:10023000421C10F8011B0029FBD1801A70470346AD
:1002400011F8012B00F8012B002AF9D1184670474C
:1002500030B50B46014600202022012409E021FA96
:1002600002F59D4205D303FA02F5491B04FA02F593
:100270002844151EA2F10102F1DC30BD064C074DE9
:1002800006E0E06840F0010394E807009847103466
:10029000AC42F6D3FFF750FF9C350008BC35000890
:1002A0001FB50020224A0123CDE9012000930390CD
:1002B00003464FF400721FA1214802F0A9FF00205D
:1002C000204A0223CDE901200093039003464FF416
:1002D00000721DA11F4802F09BFF00201E4A03234D
:1002E000CDE901200093039003464FF400721BA157
:1002F0001D4802F08DFF00201C4A0423CDE9012097
:100300000093039003464FF4007219A11B4802F0BA
:100310007FFF00201A4A0423CDE9012000930390B7
:1003200003464FF4007217A1194802F071FF1FBD78
:1003300068000020765461736B55736572494600FE
:10034000653000086C000020765461736B4C4544A6
:1003500031000000092E00087000002076546173FF
:100360006B4C454432000000212E00087400002030
:10037000765461736B4C454433000000392E0008FD
:1003800078000020765461736B4C454434000000C3
:10039000552E00081CB50C480C4908600020486028
:1003A00000210A4881604FF46161C16001F07BFA6D
:1003B00001200090002001906946044801F042FAB3
:1003C000024801F0ADFA1CBD001000407845002045
:1003D00000BFFEE700BFFEE731B5002400F0BCF926
:1003E000044600BF00F0B8F9001B00998842F9D319
:1003F00038BD00002DE9F847024600240020002502
:100400008446002700237BE14FF0010808FA03F43B
:10041000D1F8008008EA0400A0427DD1DFF8ECA208
:10042000D1F80480A8EB0A09D0453AD014DCB8F121
:10043000030F50D009DCB8F1000F31D0B8F1010F33
:100440001CD0B8F1020F49D120E0B8F1110F18D03B
:10045000B8F1120F42D11EE0B9F5881F25D006DC95
:10046000B9F5803F20D0B9F5801F37D11AE0B9F532
:10047000001F18D0B9F5041F30D117E0D1F80CC017
:100480002DE0D1F80C8008F1040C28E0D1F80C80A4
:1004900008F1080C23E0D1F80C8008F10C0C1EE0E8
:1004A00000BF00BF00BF00BF00BF00BFD1F8088081
:1004B000B8F1000F02D14FF0040C0BE0D1F8088026
:1004C000B8F1010F03D14FF0080C146102E04FF0B6
:1004D000080C546103E04FF0000C00E000BF00BFC7
:1004E000FF2801D8904601E002F104084646FF28A3
:1004F00002D84FEA830803E0A3F108084FEA88080E
:100500004746D6F800804FF00F0909FA07F928EAA4
:1005100009080CFA07F900E07AE048EA0908C6F889
:100520000080D1F8048008F08058B8F1805F6FD166
:1005300000BFDFF8DC81D8F8188048F00108DFF848
:10054000D091C9F81880C846D8F8188008F001087A
:10055000CDF8008000BF00BF4FEAB9384FEA9309D9
:1005600058F829504FEA83784FEA18794FF00F086E
:1005700008FA09F825EA0805DFF89881424502D112
:100580004FF0000824E0DFF89081424502D14FF09F
:1005900001081DE0DFF88481424502D14FF00208D6
:1005A00016E0DFF87C81424502D14FF003080FE0EE
:1005B000DFF87081424502D14FF0040808E0DFF80F
:1005C0006881424502D14FF0050801E04FF006086E
:1005D0004FEA83794FEA197908FA09F848EA0505DC
:1005E000DFF848814FEA930948F82950D1F8048090
:1005F00008F48038B8F5803F0BD1DFF83481D8F8A3
:10060000008048EA0008DFF82891C9F800800AE075
:1006100075E0DFF81C81D8F8008028EA0008DFF8D0
:100620001091C9F80080D1F8048008F40038B8F5BA
:10063000003F0ED1DFF8F88008F10408D8F80080F8
:1006400048EA0008DFF8E89009F10409C9F80080D9
:100650000DE0DFF8DC8008F10408D8F8008028EA13
:100660000008DFF8CC9009F10409C9F80080D1F83E
:10067000048008F48018B8F5801F0ED1DFF8B08030
:1006800008F10808D8F8008048EA0008DFF8A090D0
:1006900009F10809C9F800800DE0DFF8948008F13D
:1006A0000808D8F8008028EA0008DFF8849009F1EB
:1006B0000809C9F80080D1F8048008F40018B8F5DA
:1006C000001F0ED1DFF8688008F10C08D8F8008010
:1006D00048EA0008DFF8589009F10C09C9F80080D1
:1006E0000DE0DFF84C8008F10C08D8F8008028EA0B
:1006F0000008DFF83C9009F10C09C9F800805B1C88
:10070000102BFFF481AEBDE8F88700000000111047
:100710000010024000080140000C014000100140A0
:100720000014014000180140001C01400800014075
:1007300000040140024693680B400BB1012000E029
:1007400000207047C2684A40C26070470AB1016128
:1007500001E00B0403617047014800687047000026
:100760007C00002002480068401C01490860704776
:100770007C00002010B50848006840F010000649D1
:100780000860032000F09AF80F2000F007F800F04E
:1007900017F8002010BD00000020024070B504468C
:1007A00000F0BAFA4FF47A71B0FBF1F5284601F087
:1007B0002DF800222146501E00F041F8002070BDA7
:1007C00008B500BF1648806940F0010014498861EF
:1007D0000846806900F00100009000BF00BF0320C0
:1007E00000F06CF8002211466FF00B0000F027F8C3
:1007F000002211466FF00A0000F021F80022114695
:100800006FF0090000F01BF800221146101F00F0E5
:1008100016F800220F21501E00F011F808BD00004C
:100820000010024000BF00F01F0201219140420968
:10083000920002F1E022C2F8001100BF70472DE9DA
:10084000F05F80460D461646002701F049FB07463B
:1008500039462A46334601F00700C0F1070ABAF1CB
:10086000040F02D94FF0040A01E0C0F1070AD14693
:1008700000F1040ABAF1070F02D24FF0000A01E0BA
:10088000A0F1030AD4464FF0010A0AFA09FAAAF1C4
:10089000010A0AEA020A0AFA0CFA4FF0010B0BFAF3
:1008A0000CFBABF1010B0BEA030B4AEA0B042146EC
:1008B000404601F01DFBBDE8F09F000000BF00F0C6
:1008C0000702064B19684FF6FF031940044B0B4310
:1008D00043EA0221014B196000BF70470CED00E0B4
:1008E0000000FA0570B504460D460026F74800687A
:1008F00000F00700A84270D2F448006820F007001A
:100900002843F24908600846006800F00700A84242
:1009100001D0012070BD207800F00200022807D12C
:10092000EB48406820F0F000A1680843E8494860BF
:10093000207800F0010000286FD0606801282DD1D8
:100940002020010391FAA1F1B1FA81F108430121BC
:10095000B1EB601F02D1DE4800680FE020200103E8
:1009600091FAA1F1B1FA81F108430221B1EB601FC4
:1009700002D1D748006A01E0D548406A20210A0325
:1009800092FAA2F2B2FA82F2114301F01F0201219F
:1009900091400840002861D10120BBE7606802282F
:1009A0002DD12020010591FAA1F1B1FA81F108437E
:1009B0000121B1EB601F02D1C548006810E0202082
:1009C000010591FAA1F1B1FA81F108430221B1EBDD
:1009D000601F03D1BE48006A02E083E0BC48406A61
:1009E00020210A0592FAA2F2B2FA82F2114301F032
:1009F0001F0201219140084078BB01208AE7202096
:100A0000022191FAA1F1B1FA81F108430121B1EB80
:100A1000601F03D1AE48006810E05BE12020022196
:100A200091FAA1F1B1FA81F108430221B1EB601F03
:100A300002D1A748006A01E0A548406A20210222AD
:100A400092FAA2F2B2FA82F2114301F01F020121DE
:100A50009140084008B901205CE7FFE79C484068E6
:100A600020F003006168084399494860FFF774FE6D
:100A700006466068012810D108E0FFF76DFE801B74
:100A800041F28831884201D9032043E79048406809
:100A900000F00C000428F0D11CE16068022810D19D
:100AA00008E0FFF759FE801B41F28831884201D9E6
:100AB00003202FE78648406800F00C000828F0D19A
:100AC00008E108E0FFF748FE801B41F288318842C8
:100AD00001D903201EE77E48406800F00C00002882
:100AE000F0D1F7E0207800F00200022807D1784822
:100AF000406820F0F000A1680843754948602078FC
:100B000000F0010000286ED0606801282CD1202060
:100B1000010391FAA1F1B1FA81F108430121B1EB8E
:100B2000601F02D16A4800680FE02020010391FA9B
:100B3000A1F1B1FA81F108430221B1EB601F02D1AA
:100B40006348006A01E06248406A20210A0392FA81
:100B5000A2F2B2FA82F2114301F01F020121914088
:100B6000084088BB0120D5E6606802282DD12020EE
:100B7000010591FAA1F1B1FA81F108430121B1EB2C
:100B8000601F02D1524800680FE02020010591FA51
:100B9000A1F1B1FA81F108430221B1EB601F02D14A
:100BA0004B48006A01E04A48406A20210A0592FA4F
:100BB000A2F2B2FA82F2114301F01F020121914028
:100BC000084008B90120A5E62DE02020022191FA75
:100BD000A1F1B1FA81F108430121B1EB601F03D10A
:100BE0003B48006810E061E02020022191FAA1F169
:100BF000B1FA81F108430221B1EB601F02D1344800
:100C0000006A01E03248406A2021022292FAA2F2F0
:100C1000B2FA82F2114301F01F0201219140084013
:100C200008B9012076E62A48406820F00300616890
:100C3000084327494860FFF78FFD06466068012892
:100C400010D108E0FFF788FD801B41F2883188420F
:100C500001D903205EE61E48406800F00C0004281D
:100C6000F0D123E06068022810D108E0FFF774FD9E
:100C7000801B41F28831884201D903204AE614489A
:100C8000406800F00C000828F0D10FE008E0FFF702
:100C900063FD801B41F28831884201D9032039E687
:100CA0000B48406800F00C000028F0D107480068AD
:100CB00020F007002843054908600846006800F056
:100CC0000700A84206D0012024E6000000200240D0
:100CD00000100240207800F00400042807D10D48DD
:100CE000406820F4E060E16808430A4948602078E1
:100CF00000F00800082808D10648406820F4605039
:100D0000216940EAC100034948600F20FFF746FD12
:100D10000020FFE50010024000B500F045F8094949
:100D2000496801F0F001F02292FAA2F2B2FA82F2DE
:100D3000D140054A515CC840044908600846006833
:100D400000BD0000001002408C35000800000020AB
:100D500000B5FFF7E1FF0749496801F4E0614FF48E
:100D6000E06292FAA2F2B2FA82F2D140024A515CF7
:100D7000C84000BD001002408C35000800B5FFF7E8
:100D8000CBFF0749496801F460514FF4605292FA71
:100D9000A2F2B2FA82F2D140024A515CC84000BDD0
:100DA000001002408C350008F0B585B00FF28C0CB5
:100DB0009CE8E01001A8A0E8E01024A52D680095AB
:100DC00000210024002200230020214D696801F049
:100DD0000C056DB3042D02D0082D28D101E01D486B
:100DE00028E001F470154FF4701696FAA6F6B6FADC
:100DF00086F6F54001AE735D01F4803595B1144D72
:100E00006D6805F400354FF4003696FAA6F6B6FA8A
:100E100086F6F5401DF805400E4DB5FBF4F505FBD3
:100E200003F202E00C4D03FB05F2104602E000BFA6
:100E3000084800BF00BF05B0F0BD00000203040574
:100E4000060708090A0B0C0D0E0F10100102000016
:100E50000010024000127A0000093D0038B5044637
:100E60000025207800F00100002877D0FC48406879
:100E700000F00C0004280CD0F948406800F00C0089
:100E8000082837D1F648406800F48030B0F5803F3C
:100E900030D12020010391FAA1F1B1FA81F1084388
:100EA0000121B1EB601F02D1ED4800680FE0202066
:100EB000010391FAA1F1B1FA81F108430221B1EBEA
:100EC000601F02D1E648006A01E0E548406A20213F
:100ED0000A0392FAA2F2B2FA82F2114301F01F025F
:100EE0000121914008400028BFD06068002835D11A
:100EF000012038BD00BFDA48006820F48030D849AE
:100F000008600846006820F48020086000BFFFF7F2
:100F100023FC054606E0FFF71FFC401B642801D9AF
:100F20000320E6E72020010391FAA1F1B1FA81F153
:100F300008430121B1EB601F02D1C948006810E0ED
:100F40002020010391FAA1F1B1FA81F108430221B5
:100F5000B1EB601F03D1C248006A02E0B7E0C048AD
:100F6000406A20210A0392FAA2F2B2FA82F21143F5
:100F700001F01F020121914008400028CBD100BFA1
:100F80006068B0F5803F06D1B548006840F4803015
:100F9000B349086028E0606858B9B148006820F497
:100FA0008030AF4908600846006820F4802008605F
:100FB0001AE06068B0F5A02F0BD1A948006840F492
:100FC0008020A74908600846006840F48030086027
:100FD0000AE0A348006820F48030A1490860084670
:100FE000006820F48020086000BF6068B8B3FFF795
:100FF000B3FB054606E0FFF7AFFB401B642801D9B1
:10100000032076E72020010391FAA1F1B1FA81F1E2
:1010100008430121B1EB601F02D1914800680FE045
:101020002020010391FAA1F1B1FA81F108430221D4
:10103000B1EB601F02D18A48006A01E08848406A2B
:1010400020210A0392FAA2F2B2FA82F2114301F0CD
:101050001F020121914008400028CCD037E0FFE773
:10106000FFF77AFB054606E0FFF776FB401B642896
:1010700001D903203DE72020010391FAA1F1B1FA43
:1010800081F108430121B1EB601F02D1744800686F
:101090000FE02020010391FAA1F1B1FA81F1084398
:1010A0000221B1EB601F02D16D48006A01E06C487B
:1010B000406A20210A0392FAA2F2B2FA82F21143A4
:1010C00001F01F020121914008400028CCD1207876
:1010D00000F0020002284ED16148406800F00C0088
:1010E00050B15F48406800F00C00082844D15C48CB
:1010F000406800F4803078BB2020022191FAA1F1F1
:10110000B1FA81F108430121B1EB601F02D15448CB
:1011100000680FE02020022191FAA1F1B1FA81F1DB
:1011200008430221B1EB601F02D14D48006A01E083
:101130004B48406A2021022292FAA2F2B2FA82F2CD
:10114000114301F01F0201219140084028B120699C
:10115000012802D00120CCE60EE04148006820F0D2
:10116000F800F82292FAA2F2B2FA82F26169914092
:1011700008433B49086095E0206970B3012090FA6C
:10118000A0F1B1FA81F1374A42F82100FFF7E4FA01
:10119000054606E0FFF7E0FA401B022801D90320CC
:1011A000A7E62020022191FAA1F1B1FA81F10843CA
:1011B0000121B1EB601F02D12948006810E0202016
:1011C000022191FAA1F1B1FA81F108430221B1EBB8
:1011D000601F03D12248006A02E01EE02048406AF6
:1011E0002021022292FAA2F2B2FA82F2114301F015
:1011F0001F020121914008400028CBD01848006808
:1012000020F0F800F82292FAA2F2B2FA82F26169B2
:10121000914008431249086044E00020012191FAFE
:10122000A1F1B1FA81F10F4A42F82100FFF794FAD7
:10123000054606E0FFF790FA401B022801D903207B
:1012400057E62020022191FAA1F1B1FA81F1084379
:101250000121B1EB601F07D10148006814E00000D4
:1012600000100240000042422020022191FAA1F128
:10127000B1FA81F108430221B1EB601F02D1FC48B1
:10128000006A01E0FA48406A2021022292FAA2F2A2
:10129000B2FA82F2114301F01F020121914008408D
:1012A0000028C7D1207800F00800082846D1A0699E
:1012B00080B3012090FAA0F1B1FA81F1ED4A02EB7E
:1012C0008101C1F88004FFF747FA054606E0FFF701
:1012D00043FA401B022801D903200AE660200221BC
:1012E00091FAA1F1B1FA81F108430121B1EB601F3C
:1012F00002D1DF48006810E06020022191FAA1F1DC
:10130000B1FA81F108430221B1EB601F03D1D84843
:10131000006A02E013E0D648406A6021022292FA95
:10132000A2F2B2FA82F2114301F01F0201219140B0
:1013300008400028CBD00120FFF74EF841E0002004
:10134000012191FAA1F1B1FA81F1CA4A02EB8101BE
:10135000C1F88004FFF700FA054606E0FFF7FCF944
:10136000401B022801D90320C3E56020022191FA25
:10137000A1F1B1FA81F108430121B1EB601F02D163
:10138000BB4800680FE06020022191FAA1F1B1FA98
:1013900081F108430221B1EB601F02D1B448006A19
:1013A00001E0B348406A6021022292FAA2F2B2FA46
:1013B00082F2114301F01F020121914008400028F0
:1013C000CCD1207800F00400042875D100BFA848D3
:1013D000C06940F08050A649C8610846C06900F065
:1013E0008050009000BF00BFA348006840F48070A8
:1013F000A1490860FFF7B0F9054606E0FFF7ACF930
:10140000401B642801D9032073E59B48006800F461
:1014100080700028F2D000BF9548006A20F00100DB
:10142000934908620846006A20F00400086200BF81
:10143000FFF792F9054608E0FFF78EF9401B41F2ED
:101440008831884201D9032053E54020022191FAD6
:10145000A1F1B1FA81F108430121B1EB601F02D182
:10146000834800680FE04020022191FAA1F1B1FA0F
:1014700081F108430221B1EB601F02D17C48006A70
:1014800001E07B48406A4021022292FAA2F2B2FABD
:1014900082F2114301F01F0201219140084000280F
:1014A000CAD100BFE068012807D17148006A40F046
:1014B00001006F49086228E09EE0E06858B96C4876
:1014C000006A20F001006A4908620846006A20F0BC
:1014D0000400086219E0E06805280BD16448006A3E
:1014E00040F00400624908620846006A40F00100CA
:1014F00008620AE05E48006A20F001005C49086268
:101500000846006A20F00400086200BFE068C8B323
:10151000FFF722F9054608E0FFF71EF9401B41F2EC
:101520008831884201D90320E3E44020022191FA66
:10153000A1F1B1FA81F108430121B1EB601F02D1A1
:101540004B4800680FE04020022191FAA1F1B1FA66
:1015500081F108430221B1EB601F02D14448006AC7
:1015600001E04348406A4021022292FAA2F2B2FA14
:1015700082F2114301F01F0201219140084000282E
:10158000CAD039E0FFE7FFF7E7F8054608E0FFF7C4
:10159000E3F8401B41F28831884201D90320A8E4D6
:1015A0004020022191FAA1F1B1FA81F10843012111
:1015B000B1EB601F02D12E4800680FE040200221ED
:1015C00091FAA1F1B1FA81F108430221B1EB601F58
:1015D00002D12748006A01E02548406A40210222E2
:1015E00092FAA2F2B2FA82F2114301F01F02012133
:1015F000914008400028CAD1E069002871D01C48F9
:10160000406800F00C0008286CD0E06902286AD11C
:101610000021C00590FAA0F0B0FA80F0154A42F817
:101620002010FFF799F8054606E0FFF795F8401BF4
:10163000022801D903205CE42020010591FAA1F1E0
:10164000B1FA81F108430121B1EB601F02D10848D2
:10165000006815E02020010591FAA1F1B1FA81F1AD
:1016600008430221B1EB601F08D10148006A07E07E
:101670000010024000004242007000405748406A9B
:1016800020210A0592FAA2F2B2FA82F2114301F085
:101690001F020121914008400028C6D1206AB0F500
:1016A000803F07D14D48406820F40030A1680843CE
:1016B0004A494860D4E9080108434849496821F487
:1016C00074110843454948600120010691FAA1F1CF
:1016D000B1FA81F1424A42F82100FFF73DF8054690
:1016E00009E079E076E033E0FFF736F8401B0228A6
:1016F00001D9032015E42020010591FAA1F1B1FAE6
:1017000081F108430121B1EB601F02D13348006829
:101710000FE02020010591FAA1F1B1FA81F108430F
:101720000221B1EB601F02D12C48006A01E02B4876
:10173000406A20210A0592FAA2F2B2FA82F211431B
:1017400001F01F020121914008400028CCD043E065
:1017500000214FF0807090FAA0F0B0FA80F0204A9B
:1017600042F82010FEF7F8FF054606E0FEF7F4FF0A
:10177000401B022801D9032043E42020010591FAEF
:10178000A1F1B1FA81F108430121B1EB601F02D14F
:10179000124800680FE02020010591FAA1F1B1FA8A
:1017A00081F108430221B1EB601F02D10B48006AAE
:1017B00001E00A48406A20210A0592FAA2F2B2FA30
:1017C00082F2114301F01F020121914008400028DC
:1017D000CCD101E0012014E4002012E4001002400A
:1017E00000004242042808D14FF0E021096941F08D
:1017F00004014FF0E022116107E04FF0E021096998
:1018000021F004014FF0E0221161704770B50446E9
:101810002546681EB0F1807F01D301200FE0681ECD
:101820004FF0E02148610F214FF0FF3000F060FBE6
:1018300000204FF0E021886107200861002070BD82
:1018400070477047024600BF92F83800012801D166
:1018500002207047012082F8380000BF022082F881
:1018600039001068406820F07000136858601068F4
:1018700040680B681843136858601068806820F04F
:10188000800013689860106880684B68184313687C
:101890009860012082F8390000BF002082F83800EB
:1018A00000BF00BFD5E710B504460CB9012010BD3C
:1018B00094F8390028B9002084F83800204600F058
:1018C0000DF8022084F83900211D206800F092FBF9
:1018D000012084F839000020E9E7000038B504460B
:1018E0000D492068884215D100BF0C48C06940F0FE
:1018F00010000A49C8610846C06900F01000009055
:1019000000BF00BF002211463620FEF798FF3620A8
:10191000FEF788FF38BD00000010004000100240B4
:1019200001460868C06840F001000A68D060086895
:10193000006840F001000A6810600020704770479E
:1019400010B5044620680069C0F34000D8B1206893
:10195000C068C0F34000B0B16FF0020021680861B8
:10196000012020762068806900F0030018B120462D
:10197000FFF7E5FF05E0204600F0ADF8204600F057
:10198000ABF80020207620680069C0F38000D8B151
:101990002068C068C0F38000B0B16FF00400216817
:1019A0000861022020762068806900F4407018B138
:1019B0002046FFF7C4FF05E0204600F08CF82046E3
:1019C00000F08AF80020207620680069C0F3C0008B
:1019D000D8B12068C068C0F3C000B0B16FF0080093
:1019E00021680861042020762068C06900F00300A7
:1019F00018B12046FFF7A3FF05E0204600F06BF882
:101A0000204600F069F80020207620680069C0F3C5
:101A10000010D8B12068C068C0F30010B0B16FF0FA
:101A2000100021680861082020762068C06900F451
:101A3000407018B12046FFF782FF05E0204600F015
:101A40004AF8204600F048F8002020762068006917
:101A500000F0010058B12068C06800F0010030B10A
:101A60006FF0010021680861204600F037F8206817
:101A70000069C0F3C01058B12068C068C0F3C0103E
:101A800030B16FF08000216808612046FFF7D8FE72
:101A900020680069C0F3801058B12068C068C0F3A6
:101AA000801030B16FF0400021680861204600F0DE
:101AB0002BF820680069C0F3401058B12068C06856
:101AC000C0F3401030B16FF020002168086120465B
:101AD000FFF7B7FE10BD704770470000084909685E
:101AE000C96801F0010149B106490968491C054A64
:101AF00011606FF00101024A126811617047000025
:101B00007845002080000020704710B504460CB9CD
:101B1000012010BDA06900B100E000BF94F83900B9
:101B200028B9002084F83800204600F025F802206B
:101B300084F839002068C06820F400502168C8602B
:101B4000204600F09FFA2068006920F49040216848
:101B500008612068406920F02A00216848612068F7
:101B6000C06840F400502168C8600020E063012094
:101B700084F839000020CCE710B586B0044614493B
:101B80002068884221D100BF1248806940F480401B
:101B9000104988610846806900F48040019000BFC8
:101BA00000BF48150290022003900320059002A96F
:101BB0000948FEF71FFC4FF480600290002003905C
:101BC000049002A90448FEF715FC06B010BD000001
:101BD0000038014000100240000801402DE9F047A4
:101BE00004460D46164699464FF0000894F8398091
:101BF000B8F1010F02D0B8F1220F65D105B116B9C5
:101C00000120BDE8F08700BF94F83800012801D119
:101C10000220F6E7012084F8380000BF0020E063CE
:101C200094F83900222803D1322084F8390002E0E8
:101C3000122084F83900A684E68428E0E08C401E57
:101C4000E084A068B0F5805F14D14B46002280216B
:101C5000204600F0ABFA08B10320D2E72F463888BF
:101C6000C0F3080021684860206908B9AD1C0EE087
:101C70006D1C0CE04B4600228021204600F096FAB5
:101C800008B10320BDE715F8010B21684860E08C1E
:101C90000028D3DC4B4600224021204600F086FA83
:101CA00008B10320ADE794F83900322803D122208F
:101CB00084F8390002E0012084F8390000BF0020D8
:101CC00084F8380000BF9CE702209AE700BFFEE7D7
:101CD00010B501210C48FEF72DFD012811D10A2075
:101CE000FEF77AFB01210848FEF724FD012808D100
:101CF00000BF01210448FEF71DFD0128F9D0012095
:101D000010BD0020FCE700000008014000B585B0D0
:101D100000BF1848806940F00400164988610846F1
:101D2000806900F00400009000BF00BF00BF0846BB
:101D3000806940F0100088610846806900F010005A
:101D4000009000BF00BF01200190002002900220FF
:101D5000039001A90848FEF74DFB4FF40050019095
:101D6000002002900120039001A90448FEF742FBE5
:101D700005B000BD00100240000801400010014005
:101D800000B585B000BF3A48806940F00800384986
:101D900088610846806900F00800009000BF00BF1D
:101DA00000BF0846806940F48070886108468069F9
:101DB00000F48070009000BF00BF00BF084680693B
:101DC00040F0100088610846806900F01000009023
:101DD00000BF00BF00BF0846806940F01000886166
:101DE0000846806900F01000009000BF00BF00228C
:101DF00001212048FEF7AAFC002240211E48FEF7E0
:101E0000A5FC00224FF400711C48FEF79FFC002245
:101E10004FF480711948FEF799FC0120019002905F
:101E20000220049001A91348FEF7E4FA4020019033
:101E3000012002900220049001A90F48FEF7DAFA6F
:101E40004FF400700190012002900220049001A93B
:101E50000A48FEF7CFFA4FF48070019001200290FB
:101E60000220049001A90548FEF7C4FA05B000BDA0
:101E700000100240000C0140002001400010014011
:101E800008B500BF1148806940F004000F4988611F
:101E90000846806900F00400009000BF00BF0C48B5
:101EA0000C4908604FF4E13048604FF48051094814
:101EB00081600021C1604FF4806101610C214161AA
:101EC00000218161C161FFF720FE08BD00100240C2
:101ED00000380140B445002000BFFEE77047000015
:101EE00002480068C0F30220704700000CED00E0DB
:101EF00010B5002807DA0A07140E054A00F00F0390
:101F00001B1FD45403E00A07130E024A135410BDDA
:101F100018ED00E000E400E010B5FEF723FC00F04F
:101F2000FBFA10BD10B590B0012006900004079098
:101F30000020089002200D90C1030E914FF4E01193
:101F40000F9106A8FEF78AFF0F2001900220029051
:101F5000002003904FF4806004900020059002213F
:101F600001A8FEF7BFFCFEF7D7FE4FF47A71B0FB75
:101F7000F1F42046FFF74AFC0420FFF733FC00226F
:101F80000F21501EFEF75BFC10B010BD1148006819
:101F900040F001000F490860084640680E490840BB
:101FA0000C494860084600680C4908400949086027
:101FB0000846006820F4802008600846406820F445
:101FC000FE0048604FF41F008860C80304490860A1
:101FD00070470000001002400000FFF8FFFFF6FE0F
:101FE00008ED00E010B50248FFF7AAFC10BD0000A4
:101FF00078450020002202681D4B98420ED01D4BF0
:1020000098420BD0B0F1804F08D01B4B984205D0BE
:102010001A4B984202D01A4B984203D122F0700218
:102020004B681A43124B98420ED0124B98420BD079
:10203000B0F1804F08D0104B984205D00F4B98421A
:1020400002D00F4B984203D122F44072CB681A435E
:1020500002608B68C3620B688362054B984202D0B2
:10206000044B984201D10B6903630123436170471C
:10207000002C0140003401400004004000080040F2
:10208000000C00402DE9F04104460025206800695D
:1020900020F44050E1680843216808612169A06884
:1020A0000843616940EA01052068C06841F20C619B
:1020B000884328432168C8602068406920F4407044
:1020C000A16908432168486137492068884234D1B2
:1020D000FEF754FE00EBC00101EB001061688900BF
:1020E000B0FBF1F06421B0FBF1F6FEF747FE00EB28
:1020F000C00101EB001061688900B0FBF1F7FEF749
:102100003DFE00EBC00101EB001061688900B0FBEF
:10211000F1F06421B0FBF1F000EBC00101EB001025
:10212000A7EB8000322101EB00106421B0FBF1F03D
:1021300066F31F102168886033E0FEF709FE00EBAC
:10214000C00101EB001061688900B0FBF1F064216F
:10215000B0FBF1F6FEF7FCFD00EBC00101EB001057
:1021600061688900B0FBF1F7FEF7F2FD00EBC001FA
:1021700001EB001061688900B0FBF1F06421B0FB55
:10218000F1F000EBC00101EB0010A7EB8000322161
:1021900001EB00106421B0FBF1F066F31F10216821
:1021A0008860BDE8F0810000003801402DE9F04171
:1021B00004460E4617461D464FF00008FEF7CCFABF
:1021C00080469FBB2BE0681C48B32DB1FEF7C4FAD4
:1021D000A0EB0800A84222D92068C06820F0800047
:1021E0002168C8602068C06820F020002168C860AD
:1021F0002068C06820F480702168C8602068406949
:1022000020F0010021684861012084F8390000BFF6
:10221000002084F8380000BF0320BDE8F08120686A
:1022200000683040B04202D1012001E003E000200C
:102230000028C8D035E02AE0681C40B32DB1FEF775
:102240008BFAA0EB0800A84221D92068C06820F0D2
:1022500080002168C8602068C06820F020002168E4
:10226000C8602068C06820F480702168C860206859
:10227000406920F0010021684861012084F839009C
:1022800000BF002084F8380000BF0320C5E72068A5
:1022900000683040B04201D1012000E00020002859
:1022A000CAD10020B9E700BFFEE700000FB4054B1C
:1022B00010B503A9044A029800F02CF810BC5DF890
:1022C00014FB0000D9240008840000200FB4084B40
:1022D00010B504A902AA039800F01CF8044602A94C
:1022E000002000F0F3F8204610BC5DF814FB00005D
:1022F000CD24000802E008C8121F08C1002AFAD144
:1023000070477047002001E001C1121F002AFBD175
:10231000704700002DE9FF4F8BB09A460F460546E7
:10232000002606E025280BD052460D9990476D1CDB
:10233000761C28780028F5D10FB03046BDE8F08F24
:102340000024A0460122604900E0044315F8013F43
:10235000203B02FA03F00842F7D128782E2817D143
:1023600015F8010F44F004042A280ED06FF02F0254
:102370002878A0F1300109290AD808EB880102EB7E
:10238000410100EB01086D1CF2E757F8048B6D1C4E
:10239000287869283ED006DC0028CDD063280BD0F1
:1023A000642804D136E0732810D075284BD05246EB
:1023B0000D999047761C85E017F8040B8DF8000006
:1023C00000208DF80100E946012003E057F8049B46
:1023D0004FF0FF3061074FF0000401D40AE0641CA5
:1023E00044450DDA8442FADB19F804100029F6D1CD
:1023F00006E0641C8442FCDB19F804100029F8D1C3
:10240000264404E019F8010B52460D999047641ECA
:10241000F8D257E001CF4FF00A0B002802DA404211
:102420002D2102E0210504D52B218DF82410012156
:1024300003E0E10705D02021F7E70DF1200908911D
:102440000CE00021F9E701CF4FF00A0BF9E75946FC
:10245000FDF7FEFE01F1300209F8012D0028F6D14A
:10246000ADEB090000F1200B600701D44FF001082B
:10247000D84502DDA8EB0B0000E0002080460024D8
:1024800006E009A85246005D0D999047641C761C31
:1024900008988442F5DB04E0302052460D999047BD
:1024A000761CB8F10001A8F10108F5DC05E019F887
:1024B000010B52460D999047761CBBF10001ABF120
:1024C000010BF4DC6D1C34E7092801000A68531C79
:1024D0000B6010707047000013B50C464FF6FF7389
:1024E000012269460248FFF779FB00981CBD0000F5
:1024F000B4450020FEF73EF9FFF714FDFFF7C0FCDE
:10250000FFF73EFCFFF702FCFDF744FFFDF7C8FEB6
:1025100000F012FD00BFFEE710B500F015FF012826
:1025200001D000F065FE10BD10B504460E480068ED
:1025300044600E480068844207D20B480168091DB8
:102540000B48006800F012FB0CE007480168091D09
:102550000848006800F00AFB07480068844201D27E
:102560000548046010BD0000040000201800002091
:102570000C00002008000020340000202DE9F0416C
:1025800005460F461FB9A80000F0E0F900E0384604
:10259000064656B1602000F0D9F904460CB1266316
:1025A00004E0304600F040FB00E0002424B1A90024
:1025B000A522206BFDF72AFE2046BDE8F081000031
:1025C00070B523E000F0E6FC1348006808B901206C
:1025D00000E00020054600F065FFBDB900F0ECFA10
:1025E0000D48C068C468201D00F04AFA0B48006816
:1025F000401E0A4908600A480068401E08490860F1
:1026000000F0FCFA204600F00DF800BF0448006816
:102610000028D7D170BD0000500100201400002018
:102620001000002010B50446206B00F0FDFA204693
:1026300000F0FAFA10BD000030B54FF48843174897
:1026400000F007042CB1C01D20F00700134C041B40
:102650001B1B0246124C22600024114D6C60D018E6
:10266000083820F007000F4C206000240D4D2D6825
:102670006C600C4D2D682C601146441A4C60094C5E
:1026800024680C60084D4C682C60084D4C682C6028
:102690004FF00044064D2C6030BD00007801002052
:1026A000440000204C000020540000205000002076
:1026B0005800002000BFFFF783FF0348006801288F
:1026C000F9D900F0FDFAF6E7880000202DE9F0477F
:1026D00004460F4615469946DDF82080002607E09F
:1026E000B95D04F134008155B85D00B902E0761C93
:1026F000102EF5D300BF002143200155072D00D334
:102700000625E562E56400202065201D00F02BFA17
:1027100004F1180000F027FA2461C5F10700A06158
:10272000646200206065A06584F85C00BDE8F08705
:1027300010B5002407E004EB84010F4A02EB81008E
:1027400000F004FA641C072CF5D30C4800F0FEF9E5
:102750000B4800F0FBF90B4800F0F8F90A4800F0CC
:10276000F5F90A4800F0F2F90448094908600448FC
:102770000849086010BD00008800002014010020F6
:10278000280100203C0100205001002064010020AD
:10279000080000200C00002010B50146164800E09B
:1027A000006803688B42FBD30246436813448B42A4
:1027B00004D143684C682344436001460A464B6891
:1027C00013440468A34211D10C4C03682468A3424B
:1027D00008D04B680468646823444B6003681B6836
:1027E0000B6005E0054B1B680B6001E003680B60A4
:1027F000884200D0016010BD440000204C00002041
:102800002DE9F04706460C46904600252068002832
:102810004BD0204641684968416000F10801426898
:102820008A4202D14168496841604168D1F80C9000
:1028300000BF204641684968416000F108014268D4
:102840008A4202D14168496841604168CF6806EB1D
:102850004510076007F1340006EB45114860786CBD
:1028600006EB4511886006EB451080F80C80F86A8D
:1028700006EB45110861B8F1030F05D1B86A18B12C
:10288000022006EB45110873F86C06EB4511486110
:10289000786D06EB45118861386B00F023F806EB84
:1028A000451188836D1C4F45C3D12846BDE8F0878C
:1028B0000A490968096809B9012100E0002121B12C
:1028C0004FF0FF31064A116006E004490968C96803
:1028D000C868034A41681160704700000800002082
:1028E000340000200246002101E0521C491C1078EF
:1028F000A528FAD0890888B2704700000748006808
:10290000401C08B9012000E0002018B9FDF75EFC6A
:1029100000BFFEE7FDF75AFC00BFFEE75C000020A9
:1029200070B505460E4631462846FDF788FC284618
:10293000FDF77EFC044602E020202855641C0F2C85
:10294000FADB00202855281970BD00002DE9F04160
:1029500004464FF0000800F01DFB3C48006808B931
:10296000FFF76AFE3A480068204000285DD19CB11C
:10297000083404F0070078B104F00700C0F1080043
:10298000044404F0070008B9012000E0002018B951
:10299000FDF71CFC00BFFEE7002C46D02D48006868
:1029A000844242D82C4E3046056801E02E462D6800
:1029B0006868A04202D228680028F7D1234800683E
:1029C000854232D0306800F10808286830606868B5
:1029D000001B102812D92F1907F0070008B9012091
:1029E00000E0002018B9FDF7F1FB00BFFEE76868C2
:1029F000001B78606C603846FFF7CEFE15496868AA
:102A00000968081A134908600846006813490968EC
:102A1000884203D20F480068104908600C49686872
:102A20000968084368600020286000F03BFD08F05A
:102A3000070008B9012000E0002018B9FDF7C6FB27
:102A400000BFFEE74046BDE8F08100004C000020DA
:102A500058000020500000204400002054000020B6
:102A6000001F4FF080730360001F0160001F034BC5
:102A7000036014380260203870470000FD28000809
:102A800001460A69D1E901309860D1E90103586033
:102A90005068884201D18868506000200861106841
:102AA000401E1060106870472DE9F04105468846C9
:102AB00016460024072700F06DFA1D48006880457F
:102AC00030D300BF7F1E07EB87021A4B03EB820156
:102AD00005EB44100122FFF793FE0444002FF1D1CF
:102AE00005EB4410022214490968FFF789FE0444EB
:102AF00005EB4410022211490968FFF781FE0444E6
:102B000005EB441004220E49FFF77AFE044405EB5E
:102B1000441003220B49FFF773FE044416B10A4820
:102B20000068306000F0BEFC2046BDE8F081000087
:102B30001400002088000020080000200C00002065
:102B400050010020640100208000002000F10801F5
:102B500041604FF0FF31816000F10801C160016107
:102B600000210160704700210161704710B50246E5
:102B70000B685C1C0CB9106907E002F1080000E06A
:102B80004068446824689C42FAD944684C604C68A8
:102B9000A160886041600A611468641C146010BD03
:102BA00042684A6093688B609368596091600861DD
:102BB00003685B1C0360704710B5FDF707FB0D4809
:102BC0000068401C0B490860BFF34F8FBFF36F8F45
:102BD0000846006801280BD107480068C0B208B950
:102BE000012000E0002018B9FDF7F0FA00BFFEE771
:102BF00010BD00005C00002004ED00E010B50948A5
:102C0000006818B9FDF7E2FA00BFFEE70548006862
:102C1000401E044908600846006810B90020FDF70E
:102C2000DCFA10BD5C00002070B506463546002E6B
:102C300031D0083D2C46184960680968084008B141
:102C4000012000E0002018B9FDF7C0FA00BFFEE740
:102C5000206808B9012000E0002018B9FDF7B6FA95
:102C600000BFFEE70C4960680968084098B1206819
:102C700088B90949606809688843606000F08AF98A
:102C80000649606809680844044908602046FFF75F
:102C900083FD00F007FC70BD5800002050000020AC
:102CA000064800684FF47A71B0FBF1F0401E4FF017
:102CB000E021486107200861704700000000002003
:102CC0004FF0805003490860BFF34F8FBFF36F8F01
:102CD0007047000004ED00E070B50446002634B3F0
:102CE0001548006808B9012000E0002018B9FDF778
:102CF0006DFA00BFFEE700F04DF9104800680519B5
:102D00000F480068001DFFF7BBFE50B90C48006873
:102D100090F82C10012088400A490968814309482D
:102D200001602846FFF700FC00F0BCFB06460EB928
:102D3000FFF7C6FF70BD000038000020180000201B
:102D4000040000201C000020FEB50546002028706D
:102D5000264800680290254909684801FFF7F6FDFA
:102D60000446002C40D06A4620460299FFF79CFE9C
:102D7000029064210098B0FBF1F0009000980028C8
:102D80002FD00020019028E0019804EB40108069CA
:102D90000099B0FBF1F6019804EB40104168284619
:102DA000FFF7BEFD05464EB1019804EB40103346D7
:102DB0000FA182692846FFF789FA07E0019804EB22
:102DC00040100EA182692846FFF780FA2846FDF7D9
:102DD0002FFA05440198401C0190DDE90101884269
:102DE000D2D32046FFF720FFFEBD000014000020D4
:102DF0000925750909257525250D0A000925750977
:102E0000093C3125250D0A0006E001210348FDF7A4
:102E100099FC6420FFF760FFF7E70000000C014019
:102E200006E040210348FDF78DFC6420FFF754FFC6
:102E3000F7E700000020014008E04FF4007104486B
:102E4000FDF780FC4FF47A70FFF746FFF5E70000CE
:102E50000010014008E04FF480710448FDF772FC57
:102E60004FF47A70FFF738FFF5E7000000100140DB
:102E70007FB50546002028702A480068039029493C
:102E800009684801FFF762FD0446002C49D0002282
:102E900020460399FFF708FE03900020029039E0D6
:102EA000029804EB4010007B012806D0022806D0CF
:102EB000032806D0042808D105E0522607E0422660
:102EC00005E0532603E0442601E0002600BF00BFD2
:102ED000029804EB401041682846FFF721FD0546A3
:102EE000029804EB40108068029904EB4111898B31
:102EF000CDE90010029804EB401032460AA10369A4
:102F00002846FFF7E3F92846FDF792F905440298B1
:102F1000401C0290DDE902018842C1D32046FFF740
:102F200083FE7FBD1400002009256309257509254E
:102F3000750925750D0A00001FB50020009001904D
:102F40000290034680220DA103900E4800F060F924
:102F50000446012C0CD1FDF739F901200A4908601B
:102F600000200A4908600A49086000F0F1F804E00E
:102F70001CB9FDF72BF900BFFEE71FBD49444C45C6
:102F800000000000B52600082000002018000020E6
:102F90008000002002480068401C0149086070471A
:102FA0003800002010B52748006818B101202649D4
:102FB000086045E00020244908602448006824494E
:102FC0000860084600682349096888420BD92249ED
:102FD000096801F15400496D1D4A12681D4B1B68B8
:102FE000D21A114401601A4800681A4908601B4847
:102FF0000068B0FA80F0C0F11F0404EB84001849A7
:1030000051F8200008B1012000E0002018B9FDF7B8
:10301000DDF800BFFEE704EB8401114A02EB8100FA
:1030200041684968416000F1080142688A4202D162
:103030004168496841604168C968074A116000BF3A
:1030400010BD000038000020280000208000002073
:10305000400000203C000020040000201C00002054
:1030600088000020FEB01DE0FEF732FE012816D1D8
:103070000DA0FFF71BF919A0FFF718F901A8FFF73A
:10308000F7FE01A925A0FFF711F926A0FFF70EF919
:1030900001A8FFF759FE01A920A0FFF707F91420A6
:1030A000FFF71AFEE0E700003D3D3D3D3D3D3D3D63
:1030B0003D3D3D3D3D3D3D3D3D3D3D3D3D3D3D3D40
:1030C0003D3D3D3D3D3D3D3D3D3D3D3D3D3D3D3D30
:1030D0003D3D3D3D3D3D3D3D3D0D0A005461736B21
:1030E0004E616D652020202020205374617475731B
:1030F000205072696F7269747920202052656D6169
:10310000696E54687265616453697A6520546173AD
:103110006B4E756D6265720D0A00000025730D0A15
:10312000000000000D0A5461736B4E616D65202034
:103130002020202020436F756E746572202020208F
:10314000202020202055736167650D0A00000000D3
:103150001CB52248014609780191FF2102461170F1
:103160000146097800919DF8001001F010011C4AF9
:10317000117007211B4A116009E01A490968491EAC
:10318000184A11609DF800104906090E00919DF83B
:10319000001001F080018029EFD01249096809026E
:1031A000104A11601146098801F4E06111600B4A70
:1031B000019911700C48006840F470000A490860D9
:1031C0000846006840F070400860FFF769FD002085
:1031D00006490860FCF7C8FF00201CBD00E400E0C1
:1031E000600000206400002020ED00E05C00002072
:1031F00010B5FCF7EBFF00F0B7F818B14FF08050B6
:10320000024908600020FCF7E8FF10BD04ED00E073
:103210002DE9FF4F81B0804616469A46DDE90E5BE8
:10322000B8F1000F03D1FCF7D1FF00BFFEE7072D77
:1032300001D2012000E0002018B9FCF7C7FF00BF51
:10324000FEE730461099FFF799F90446002C5DD04F
:10325000701E216B01EB800929F0070909F00700B6
:1032600008B9012000E0002018B9FCF7AFFF00BF4B
:10327000FEE700962A462046119B0299FFF726FAA0
:10328000524641464846FFF7EBFB2060BBF1000F7A
:1032900001D0CBF80040FFF78FFC25480068401CA8
:1032A000234908602348006840B922480460084662
:1032B000006801280CD1FFF73BFA09E01E480068BE
:1032C00030B91C480068C06AA84201D81948046097
:1032D0001A480068401C1949086008460068606484
:1032E00094F82C10012088401549096808431449B6
:1032F0000860E16A01EB8101124A02EB8100211DA5
:10330000FFF74EFC0127FFF779FC01E04FF0FF3794
:10331000012F09D10848006830B106480068C06A2A
:10332000A84201D2FFF7CCFC384605B0BDE8F08FCB
:1033300014000020040000202000002030000020A5
:103340001C000020880000200549096809B90120F7
:1033500005E00449096809B9022000E0002070472F
:1033600020000020380000202DE9F0414FF0000837
:1033700041480068002872D140480068401C3F491D
:10338000086008460668DEB93D480068006808B96C
:10339000012000E0002018B9FCF718FF00BFFEE78D
:1033A000374807683748006835490860354807607E
:1033B00035480068401C34490860FFF779FA00BFBF
:1033C0003248006886423CD300BF2D480068006840
:1033D00008B9012000E0002020B14FF0FF302B4958
:1033E00008602DE026480068C068C4686568AE4281
:1033F00002D22648056023E0201DFFF741FBA06AAA
:1034000018B104F11800FFF73BFB94F82C100120D1
:1034100088401F49096808431D490860E16A01EBBB
:1034200081011C4A02EB8100211DFFF7B9FB1A49FB
:10343000E06A0968C96A8842C7D34FF00108C4E747
:1034400000BF15480068C06A00EB8000114951F8C0
:103450002000012808D94FF0010805E0FFE70F48D8
:103460000068401C0D4908600D48006808B14FF025
:1034700001084046BDE8F081380000201800002017
:10348000080000200C0000202C0000203400002048
:103490001C000020880000200400002024000020E0
:1034A0002800002070B500253048006818B9FCF7E6
:1034B0008DFE00BFFEE7FFF77FFB2C480068401E33
:1034C0002A4908600846006800284BD1284800684F
:1034D000002847D024E02748C068C46804F11800D9
:1034E000FFF7CEFA201DFFF7CBFA94F82C1001203D
:1034F00088402149096808431F490860E16A01EBD7
:1035000081011E4A02EB8100211DFFF749FB1C4986
:10351000E06A0968C96A884202D301201949086033
:103520001448006808B9012000E000200028D2D02B
:103530001548006878B10AE0FFF716FF10B10120C6
:103540001049086010480068401E0F4908600E4886
:1035500000680028F0D10B480068012802D101253D
:10356000FFF7AEFBFFF74AFB284670BD380000208E
:10357000140000203C0100201C00002088000020D6
:10358000040000202800002024000020000000008B
:10359000010203040102030406070809BC35000800
:1035A0000000002088000000F422000844360008D3
:1035B00088000020705500000423000800A24A047F
:1035C00000000000000000000000000000000000FB
:1035D00000000000000000000000000000000000EB
:1035E00000000000000000000000000000000000DB
:1035F000FFFFFFFF000000000000000000000000CF
:1036000000000000000000000000000000000000BA
:103610000000000000000000AAAAAAAA0000000002
:10362000000000000000000000000000000000009A
:10363000000000000000000000000000000000008A
:043640000000000086
:0400000508000131BD
:00000001FF
